:020000023000CC
:10E000000D9489F10D94B2F10D94B2F10D94B2F129
:10E010000D94B2F10D94B2F10D94B2F10D94B2F1F0
:10E020000D94B2F10D94B2F10D94B2F10D94B2F1E0
:10E030000D94B2F10D94B2F10D94B2F10D94B2F1D0
:10E040000D94B2F10D94B2F10D94B2F10D94B2F1C0
:10E050000D94B2F10D94B2F10D94B2F10D94B2F1B0
:10E060000D94B2F10D94B2F10D94B2F10D94B2F1A0
:10E070000D94B2F10D94B2F10D94B2F10D94B2F190
:10E080000D94B2F10D94B2F10D94B2F10D94B2F180
:10E090000D94B2F10D94B2F10D94B2F10D94B2F170
:10E0A0000D94B2F10D94B2F10D94B2F10D94B2F160
:10E0B0000D94B2F10D94B2F10D94B2F10D94B2F150
:10E0C0000D94B2F10D94B2F10D94B2F10D94B2F140
:10E0D0000D94B2F10D94B2F10D94B2F10D94B2F130
:10E0E0000D94B2F12A00593D506F727420626C6930
:10E0F0006E6B00563D73686F7720696E746572723F
:10E1000075707420566563746F727300523D447568
:10E110006D702052414D00513D51756974004C3D68
:10E120004C69737420492F4F20506F7274730048EC
:10E130003D48656C7000463D44756D7020464C410D
:10E14000534800453D44756D7020454550524F4D34
:10E1500000423D426C696E6B204C454400403D4599
:10E160004550524F4D2074657374003F3D435055E8
:10E1700020737461747300303D5A65726F2061645E
:10E18000647200504F5254004545206572722063FE
:10E190006E743D0052656164696E672045450057A5
:10E1A00072697474696E672045450020004D75736F
:10E1B000742062652061206C657474657200506F14
:10E1C0007274206E6F7420737570706F72746564F2
:10E1D000005768617420706F72743A006A6D702025
:10E1E00000726A6D702020006E6F20766563746F18
:10E1F00072005623202020414444522020206F707A
:10E2000020636F64652020202020696E737472750E
:10E210006374696F6E2061646472202020496E749B
:10E2200065727275707400372E332E3000322E30C6
:10E230002E30004A616E2032332032303236004CAC
:10E240006F636B20667573652020203D2000457844
:10E25000742066757365202020203D200048696782
:10E260006820667573652020203D20004C6F772064
:10E2700066757365202020203D20004350552049BD
:10E28000442020202020203D200047434320566585
:10E290007273696F6E203D2000415652204C6962B6
:10E2A00043205665723D20005F5F4156525F4152E8
:10E2B00043485F5F3D2000435055205479706520EE
:10E2C0002020203D2000436F6D70696C6564206FD5
:10E2D0006E203D20004875683F00426F6F746C6F80
:10E2E000616465723E0041726475696E6F20657885
:10E2F000706C6F7265722073746B353030563220DB
:10E300006279204D4C530041546D6567613235365A
:10E31000300011241FBECFEFD1E2DEBFCDBF01E040
:10E320000CBF12E0A0E0B2E0E6E7F9EF03E00BBFBC
:10E3300002C007900D92A033B107D9F722E0A0E305
:10E34000B2E001C01D92A434B207E1F70F9470F35C
:10E350000D94B9FC01E20EBF0FEF0DBF11241FBEDB
:10E360000D9470F30D9400F08093C6008091C0006E
:10E3700086FFFCCF8091C00080648093C000089528
:10E38000249A2C980895E1E0F1E0808180648083F4
:10E39000E2E0F1E080818F7B8083089530E020E02F
:10E3A0002817390709F40895EFECF7E03197F1F7F2
:10E3B00000C000002F5F3F4FF3CF8091C00082600C
:10E3C0008093C00080E18093C40088E18093C10005
:10E3D0000F94C0F12C980F94C3F1809102018F7BB0
:10E3E0008093020182E0F82EEE24E394C1E0D0E0B5
:10E3F0000898109A80B18170909134029130B1F0F8
:10E4000040F0923009F442C08AE090E00F94CEF1DF
:10E41000EFCF10923302109232028111F5CFE092C9
:10E420003402D0933302C0933202EECF811131C057
:10E4300080913202909133028F3F980729F0019624
:10E440009093330280933202809132029091330292
:10E45000C297D0F2F092340203E012E0F801819109
:10E460008F01811119C060E084E090E00F94ABFC53
:10E4700005E112E0F80181918F01811110C0F8943B
:10E480001092C100EE27FF270994BECF882309F41C
:10E49000BBCF10923402B8CF0F94B4F1DFCF0F94FA
:10E4A000B4F1E8CFCF93DF93EC01C60FD11DCE01BD
:10E4B000B0E0A0E0ABBFFC018791882321F021965A
:10E4C0000F94B4F1F4CFDF91CF9108958DE00F94C4
:10E4D000B4F18AE00D94B4F10F9452F20D9466F207
:10E4E000CF93DF93EC018991882319F00F94B4F155
:10E4F000FACFDF91CF910895CF93C82F982F92959F
:10E500009F7080E3890F8A3310F087E3890F0F949F
:10E51000B4F1CF7080E38C0F8A3310F087E38C0F57
:10E52000CF910D94B4F10F931F93CF93DF93EC0130
:10E530008B01853691051CF4633071054CF0CE01DA
:10E5400064E670E00F9452FC80E3860F0F94B4F100
:10E55000CB30D1051CF4023011056CF0CE0164E61D
:10E5600070E00F9452FC6AE070E00F9452FC80E37C
:10E57000860F0F94B4F1CE016AE070E00F9452FC64
:10E58000805DDF91CF911F910F910D94B4F1809137
:10E59000C00087FFFCCF8091C6000895CF93C82F9D
:10E5A00060E083E891EE0F9452F28C2F0F94B4F157
:10E5B000CF910D9466F22F923F924F925F926F929D
:10E5C0007F928F929F92AF92BF92CF92DF92EF9203
:10E5D000FF920F931F93CF93DF93CDB7DEB763976F
:10E5E0000FB6F894DEBF0FBECDBF8B8B6A017B01E7
:10E5F00080E1A82E4E0181E1880E911CE1E0CE164B
:10E60000D104EE06F10418F08E2D0F947CF28D2DBE
:10E610000F947CF28C2D0F947CF280E20F94B4F175
:10E620008DE20F94B4F180E20F94B4F119828E015F
:10E630000F5F1F4F260137011801FB89F13009F4E4
:10E6400043C0F23009F445C06BBEF201B7908B2D88
:10E650000F947CF280E20F94B4F180EE8B0D8F3535
:10E66000D8F5F801B082EFEF4E1A5E0A6E0A7E0A04
:10E670000F5F1F4F0815190501F7F0E1CF0ED11CF0
:10E68000E11CF11C198AC1010F9470F20F9466F21B
:10E69000AA94A110B3CF63960FB6F894DEBF0FBE55
:10E6A000CDBFDF91CF911F910F91FF90EF90DF9041
:10E6B000CF90BF90AF909F908F907F906F905F9022
:10E6C0004F903F902F900895C2010F94A3FCB82E55
:10E6D000BECFF201B080BBCF8EE2F8018083C3CF02
:10E6E000CF93DF93CDB7DEB7C653D1400FB6F894C2
:10E6F000DEBF0FBECDBF01E20EBF0FEF0DBF94B75F
:10E70000F894A89514BE80916000886180936000A1
:10E7100010926000789493FF05C0E0913002F09170
:10E7200031021995279A2F9A8091C00082608093B8
:10E73000C00080E18093C40088E18093C1000000A4
:10E740000F94C0F12C980F94C3F1809102018F7B3C
:10E750008093020184E090E00F94A3FC8093350243
:10E760008F3F39F41092350260E084E090E00F941E
:10E77000ABFC80913502853018F081E08093360241
:10E7800010E000E0C12CD12C7601F7EC8F2EFBE1DC
:10E790009F2EA12CB12C22C025E02A95F1F7000074
:10E7A0003FEFC31AD30AE30AF30A91E080E041E2A3
:10E7B000C4164EE4D406E104F10408F490E0092FF5
:10E7C000182FC701B601A50194010F9466FC672BB1
:10E7D000682B692B19F485B1805885B98091C000E8
:10E7E00087FD03C001151105B9F2012B09F0B0C670
:10E7F000C55DDE4F19821882CB52D140F12CE12C3D
:10E80000C75DDE4F19821882C952D140CB5DDE4F01
:10E81000188219821A821B82C552D140212C312CB8
:10E82000210141E050E0CC5DDE4F1882C452D1405E
:10E83000C12CFE013196C25EDE4FF983E883CE51D2
:10E84000D14030E020E080E038C5415051096109F5
:10E85000710971F46BBFFA01479156914F3F5F4FB9
:10E8600019F0EE27FF27099441E052E16AE770E0D2
:10E870009091C00097FFE9CF24C5123409F4A8C1D4
:10E88000153409F08CC562E083E491EE0F946CF2CC
:10E89000409138025091390260913A0270913B02E6
:10E8A00081E00F94DBF28091380290913902A091BF
:10E8B0003A02B0913B029F5FAF4FBF4F8093380247
:10E8C00090933902A0933A02B0933B028115904194
:10E8D000A105B10508F440C573C0113509F4F7C1AD
:10E8E00068F5183409F4B1C11C3409F058C562E068
:10E8F0008EE191EE0F946CF281E40F94CEF282E4FB
:10E900000F94CEF283E40F94CEF284E40F94CEF20F
:10E9100085E40F94CEF286E40F94CEF287E40F9450
:10E92000CEF288E40F94CEF28AE40F94CEF28BE418
:10E930000F94CEF28CE40F94CEF20EC5163509F486
:10E94000F9C1193509F49CC3123509F028C562E0F4
:10E950008CE091EE0F946CF2409140025091410294
:10E96000609142027091430282E00F94DBF2809149
:10E97000400290914102A0914202B09143029F5FF8
:10E98000AF4FBF4F8093400290934102A093420249
:10E99000B0934302E1C462E087E791EE0F946CF21A
:10E9A00010923C0210923D0210923E0210923F02E1
:10E9B00010924002109241021092420210924302C1
:10E9C000109238021092390210923A0210923B02D1
:10E9D000C3C462E08BE691EE0F946CF260E086EEC9
:10E9E00092EE0F946CF260E086EC92EE0F9452F28D
:10E9F00060E083E392EE0F946CF260E087EB92EEBE
:10EA00000F9452F260E087E093EE0F946CF260E0B6
:10EA100088EA92EE0F9452F286E30F94B4F10F94C9
:10EA200066F260E08AE892EE0F9452F260E087E2CC
:10EA300092EE0F946CF260E089E992EE0F9452F23C
:10EA400060E08DE292EE0F946CF260E08BE792EE64
:10EA50000F9452F28EE10F947CF288E90F947CF2CD
:10EA600081E00F947CF20F9466F260E08CE692EE07
:10EA70000F9452F229E0F0E0E0E0209357008491F7
:10EA80000F947CF20F9466F260E08DE592EE0F94A5
:10EA900052F229E0E3E0F0E02093570084910F94D4
:10EAA0007CF20F9466F260E08EE492EE0F9452F2E4
:10EAB000E2E0F0E039E03093570084910F947CF26B
:10EAC0000F9466F260E08FE392EE0F9452F2E1E071
:10EAD000F0E049E04093570084910F947CF20F944A
:10EAE00066F23AC462E08DE591EE0F946CF260E05C
:10EAF0008FE991EE0F946CF20F9466F2F12CE12CF9
:10EB0000C7018A519D41B0E0A0E0ABBFFC01179165
:10EB10001A3221F0E11462E0F60681F50F9466F2F4
:10EB20000F9466F260E084E991EE0F946CF20F941A
:10EB300066F2D12CC12CF12CE12CC7018A519D41E8
:10EB4000B0E0A0E0ABBFFC0117911A3221F0E11454
:10EB500092E0F90631F50F9466F20F9466F260E0E8
:10EB600088E891EE0F9452F261E070E0C6010F94D4
:10EB700093F20F9466F20F9466F222CF612FC701D1
:10EB80000F94ABFC111109C060E08BEA91EE0F9479
:10EB900052F25FEFE51AF50AB3CF812F0F94B4F16B
:10EBA000F8CFC7010F94A3FCB82E81110EC060E00E
:10EBB0008BEA91EE0F9452F2B11619F07FEFC71A5B
:10EBC000D70A8FEFE81AF80AB8CF0F94B4F1F4CF50
:10EBD00062E081E591EE0F946CF2279A2F9A809172
:10EBE000C00087FF03C00F94C7F2B6C32F9884E616
:10EBF00090E00F94CEF12F9A84E690E00F94CEF13E
:10EC0000EECF62E086E391EE0F946CF240913C020D
:10EC100050913D0260913E0270913F0280E00F945E
:10EC2000DBF280913C0290913D02A0913E02B091B6
:10EC30003F029F5FAF4FBF4F80933C0290933D02D6
:10EC4000A0933E02B0933F0287C362E08FE291EE51
:10EC50000F946CF260E087E791EE0F946CF260E045
:10EC60008BE691EE0F946CF260E08DE591EE0F94DF
:10EC70006CF260E081E591EE0F946CF260E083E469
:10EC800091EE0F946CF260E086E391EE0F946CF2DB
:10EC900060E08FE291EE0F946CF260E08EE191EE15
:10ECA0000F946CF260E087E191EE0F946CF260E0FB
:10ECB0008CE091EE0F946CF260E083EF90EE0F9495
:10ECC0006CF260E086EE90EE0F946CF245C362E069
:10ECD00087E191EE0F946CF2F12CE12CDD24D394BA
:10ECE0002981233109F4E1C408F0A9C3263009F4CD
:10ECF000CFC408F099C3223009F47BC4233009F44F
:10ED000056C4213009F098C31A8288E08B8381E4CD
:10ED10008C8386E58D8382E58E8389E48F8383E50A
:10ED2000888780E589878FE58A8782E38B870BE078
:10ED300010E0D3C362E083EF90EE0F946CF260E0DA
:10ED400087E093EE0F946CF260E082EF91EE0F9407
:10ED50006CF2712C612CC05EDE4F188219821A820F
:10ED60001B82C052D140C05EDE4F288139814A816A
:10ED70005B81C052D1405695479537952795C35D25
:10ED8000DE4F288339834A835B83CD52D1403FEFE6
:10ED9000631A730A62E070E0C3010F9493F280E299
:10EDA0000F94B4F18DE20F94B4F180E20F94B4F1BA
:10EDB00080E00F947CF2C35DDE4F8881CD52D1405C
:10EDC0000F947CF280E20F94B4F18DE30F94B4F1D0
:10EDD00080E20F94B4F1C05EDE4F488159816A81B0
:10EDE0007B81C052D1406BBFFA015791CB5CDE4FA3
:10EDF0005883C553D140C52ED12CF12CE12CC05ED7
:10EE0000DE4F88819981AA81BB81C052D140019691
:10EE1000A11DB11DABBFFC018791282F30E050E050
:10EE200040E0CF5CDE4F288339834A835B83C15344
:10EE3000D140C05EDE4F488159816A817B81C052DA
:10EE4000D1404E5F5F4F6F4F7F4F6BBFFA013791DD
:10EE5000CA5CDE4F3883C653D140C05EDE4F488166
:10EE600059816A817B81C052D1404D5F5F4F6F4FA6
:10EE70007F4F6BBFFA011791C05EDE4F4881598109
:10EE80006A817B81C052D1404C5F5F4F6F4F7F4F93
:10EE9000C05EDE4F488359836A837B83C052D14072
:10EEA000CF5CDE4F288139814A815B81C153D140DB
:10EEB0008824922EA32EB42E8C0C9D1CAE1CBF1C3D
:10EEC0000F947CF280E20F94B4F1CB5CDE4F88812A
:10EED000C553D1400F947CF280E20F94B4F1812F9E
:10EEE0000F947CF280E20F94B4F1CA5CDE4F88810B
:10EEF000C653D1400F947CF280E20F94B4F13FEFFF
:10EF000083169306A104B10469F460E088EE91EEE3
:10EF10000F9452F20F9466F229E36216710409F01D
:10EF200022CF1AC2D501C4018827907CAA27BB270B
:10EF30008115904CA105B10579F55FE39522AA24CE
:10EF4000BB24C35DDE4FC880D980EA80FB80CD52F0
:10EF5000D140C80CD91CEA1CFB1CCC0CDD1CEE1CDF
:10EF6000FF1C60E081EE91EE0F9452F2892D0F9418
:10EF70007CF2882D0F947CF280E20F94B4F18EE342
:10EF80000F94B4F180E00F947CF28D2D0F947CF2FD
:10EF90008C2D0F947CF2BECF6EE08622E89490F820
:10EFA000AA24BB247CE0871674E99706A104B10467
:10EFB00009F0B0CF812F90E0B0E0A0E0BA2FA92FE8
:10EFC000982F8827CA5CDE4FE881C653D1408E0F48
:10EFD000911DA11DB11DCF5CDE4F488159816A8111
:10EFE0007B81C153D140E5E1440F551F661F771F58
:10EFF000EA95D1F74427552760727727840F951F2C
:10F00000A61FB71FB601552744274427552761700F
:10F01000772711E1CC0CDD1CEE1CFF1C1A95D1F7F3
:10F02000CC24DD24F0EEEF22F1E0FF22C42AD52A21
:10F03000E62AF72AC80ED91EEA1EFB1E4601570112
:10F04000880C991CAA1CBB1C60E08CED91EE0F94FF
:10F0500052F28E2D0F947CF28D2D0F947CF28C2D1C
:10F060000F947CF280E20F94B4F18EE30F94B4F12C
:10F070008A2D0F947CF2892D0F947CF2882D89CFF4
:10F0800062E086EE90EE0F946CF260E081ED91EE1E
:10F090000F9452F20F94C7F2182F1F75812F0F94FF
:10F0A000B4F10F9466F28FEB810F8A3108F0D9C06A
:10F0B000163409F47EC0C8F4133409F454C048F47B
:10F0C000113499F1123409F43FC060E08EEB91EEF7
:10F0D000FBCD143409F456C01534B9F70DB980913D
:10F0E000C00087FF5EC01EB87ECD1A3409F489C007
:10F0F00070F4173409F46CC0183439F70093010127
:10F100008091C00087FF73C0109202016CCD1B3448
:10F1100009F48AC01C34C9F600930A018091C0002A
:10F1200087FF95C010920B015ECD01B98091C000A0
:10F1300087FF02C012B857CD82B1809582B988ECA2
:10F1400090E00F94CEF1F2CF04B98091C00087FF18
:10F1500002C015B848CD85B1809585B988EC90E09E
:10F160000F94CEF1F2CF07B98091C00087FF02C0A3
:10F1700018B839CD88B1809588B988EC90E00F94A3
:10F18000CEF1F2CF0AB98091C00087FF02C01BB850
:10F190002ACD8BB180958BB988EC90E00F94CEF19D
:10F1A000F2CF8EB180958EB988EC90E00F94CEF1BD
:10F1B00096CF00BB8091C00087FF02C011BA13CD6B
:10F1C00081B3809581BB88EC90E00F94CEF1F2CFB3
:10F1D00003BB8091C00087FF02C014BA04CD84B382
:10F1E000809584BB88EC90E00F94CEF1F2CF8091B3
:10F1F000020180958093020188EC90E00F94CEF19B
:10F200007FCF009304018091C00087FF03C010925C
:10F210000501E9CC8091050180958093050188EC7A
:10F2200090E00F94CEF1EFCF009307018091C000E2
:10F2300087FF03C010920801D6CC80910801809509
:10F240008093080188EC90E00F94CEF1EFCF80918D
:10F250000B01809580930B0188EC90E00F94CEF128
:10F260005DCF60E08DEA91EE2FCD833009F4A5C02B
:10F2700068F4813009F497C0C8F0F12CE12C292FF3
:10F2800030E0322F2227C92683E015C0853009F4EB
:10F29000A8C008F498C0F12CE12C863009F4FDC216
:10F2A000F12CE12C873039F4D12C1ACDF12CE12C42
:10F2B0009B3109F4D3C250E040E04130510509F0E0
:10F2C000D3CA9091C600C55DDE4FA881B981CB52EB
:10F2D000D1401196C55DDE4FB983A883CB52D14092
:10F2E000913219F61A9708F0C5C2BFEFEB1AFB0A64
:10F2F000E3E0EE16F10409F0BFC2E5E0EE2EF12CDA
:10F3000009E110E081E20F94B4F101501109D1F745
:10F310000F9466F2F1E0EF1AF10891F710924002B3
:10F3200010924102109242021092430210923C024B
:10F3300010923D0210923E0210923F02109238024B
:10F340001092390210923A0210923B0260E086EE6F
:10F3500092EE0F946CF20FEF60E08AED92EE0F9454
:10F3600052F20F94C7F2182F803608F01F75103232
:10F37000B0F0812F0F94B4F180E20F94B4F1163401
:10F3800009F43FCC08F0A9CA103409F4ABCB08F05B
:10F3900074CA103309F4FFCA1F3309F41ACB60E0B2
:10F3A00085ED92EE91CCF12CE12CC926CC5DDE4F9F
:10F3B0009883C452D14082E07ECFF12CE12C292BDE
:10F3C000C92684E078CFF12CE12C9E3009F068C288
:10F3D000C926C75DDE4F19821882C952D14085E027
:10F3E0006ACFF12CE12CC75DDE4F48815981C952AB
:10F3F000D1404F5F5F4FE1E0F0E0EC0FFD1FC75DD4
:10F40000DE4F68817981C952D140E60FF71F9083A2
:10F41000C9264217530709F425C2C75DDE4F598339
:10F420004883C952D140DBCF213109F4CEC008F066
:10F4300022C1203109F4DDC080EC8A83DBC0283191
:10F4400009F4F5C058F5253109F432C110F0263120
:10F4500099F78A819B819827892798278C010D5FCE
:10F460001F4F1A82243109F0BDC1DE0111964BBE37
:10F47000F1012791369112962C931297FD01349643
:10F4800013963C93139722E0220E311C411C511C11
:10F4900002971296009759F710821FC02A3109F47B
:10F4A000BAC008F4D9C02B3109F4A9C02D3109F034
:10F4B000C3CF9D81903309F062C08F81882309F406
:10F4C00072C0813009F071C088E91A821B829C8366
:10F4D0001D828E831F8207E010E08BE10F94B4F150
:10F4E000CC5DDE4F8881C452D1400F94B4F1812F9E
:10F4F0000F94B4F1802F0F94B4F195E1C92ECC5D37
:10F50000DE4F3881C452D140C326C0268EE00F940E
:10F51000B4F1C126AE014F5F5F4F5A01040F151FB2
:10F520000A151B0509F08AC18C2D0F94B4F1CC5D2E
:10F53000DE4FB881C452D140BF5FCC5DDE4FB8838F
:10F54000C452D14085B1805885B9DD2009F482C10B
:10F5500027982F9884E690E00F94CEF100008091D8
:10F56000C0008D7F8093C00081E180935700E895B3
:10F5700080913602882309F469C10F94DDF1892F47
:10F58000807509F4A2CF89E0F0E0E0E0903539F031
:10F5900080E0983509F099CF89E0E3E0F0E08093CE
:10F5A0005700849192CF8EE190CF81E08ECFEA8197
:10F5B000E05980E0E33020F4F0E0E050FE4F80813D
:10F5C0001A828B8303E010E088CF80913702882372
:10F5D00071F084E090E00F94A3FC8F3F71F08530D0
:10F5E00030F461E0680F84E090E00F94ABFCDD2420
:10F5F000D3941A8202E010E070CF80E0F2CF8D81C8
:10F60000882329F0813029F488E91A820BC08EE121
:10F61000FCCF81E0FACF1A8289E0E1E0F0E080934C
:10F62000570084918B831C8204E010E056CF8B81BD
:10F63000803571F48C81883039F489E0E2E0F0E0C3
:10F64000809357008491E1CF89E0F0E0E0E0F8CFCB
:10F6500089E0E3E0F0E0F4CF8D81836C99E0E1E0B4
:10F66000F0E0082E90935700E89507B600FCFDCF18
:10F670001A821B82A7CF80EC8A8302E010E0CB5D68
:10F68000DE4F188219821A821B82C552D14025CFC3
:10F690006A817B818C819D810F9488FC1B012C01E8
:10F6A000220C331C441C551CA4CF81E080933702EC
:10F6B0000A811B81102701271027233109F05DC023
:10F6C000CB5DDE4F288139814A815B81C552D140B3
:10F6D000211560EC360763E046075105E8F483E046
:10F6E000F90140935B0080935700E89507B600FC52
:10F6F000FDCFCB5DDE4F88819981AA81BB81C55248
:10F70000D1409F5FAF4FBF4FCB5DDE4F8883998362
:10F71000AA83BB83C552D1408B85DE011196B2010D
:10F72000A10121E01B969C911B970C01FA016093AB
:10F730005B0020935700E89511244E5F5F4F6F4F99
:10F740007F4F0250110912960115110521F01A96EA
:10F750008C911A97E7CF95E0F10140925B0090936E
:10F760005700E89507B600FCFDCF81E18093570074
:10F77000E8951A821A012B013DCFD201C101B6953D
:10F78000A7959795879588248394912C8C0E9D1E20
:10F79000800E911EDE0111963D015C01C25EDE4FBE
:10F7A000E881F981CE51D140AE1ABF0A8614970480
:10F7B00069F430E020E0000F111F221F331FB90150
:10F7C000A801420D531D641D751DD3CFD3011A9698
:10F7D0006C91C501860D971D0F94ABFCBFEF6B1AA2
:10F7E0007B0AE4CFFE0131969F01280F391FB20139
:10F7F000A10141BD852E962EA72EBB2482BC4F5F52
:10F800005F4F6F4F7F4FF89AA0B5A2833196E217F2
:10F81000F30779F7AC014150510970E060E04F5FA8
:10F820005F4F6F4F7F4F240E351E461E571EE3E07D
:10F83000F0E0EC0FFD1FE80FF91F2ECED5019D90D3
:10F840005D01892D0F94B4F1C9246ACEEE27FF27FC
:10F850000994FFCF50E040E00D9421F48BE1C82ED5
:10F8600081E029CDC75DDE4F39832883C952D1405D
:10F8700086E021CDF12CE12C833009F4A0CD30F4C9
:10F88000813009F492CD08F416CDF9CC853009F415
:10F89000AACD30F0863009F005CD9C1509F404CDD1
:10F8A00080E009CD97FB072E16F4009407D077FD72
:10F8B00009D00F948FFC07FC05D03EF490958195FC
:10F8C0009F4F0895709561957F4F0895A1E21A2E7C
:10F8D000AA1BBB1BFD010DC0AA1FBB1FEE1FFF1FF4
:10F8E000A217B307E407F50720F0A21BB30BE40B44
:10F8F000F50B661F771F881F991F1A9469F760958B
:10F900007095809590959B01AC01BD01CF01089544
:10F910006927962769277827872778270895AA1BBC
:10F92000BB1B51E107C0AA1FBB1FA617B70710F0EA
:10F93000A61BB70B881F991F5A95A9F7809590951C
:10F94000BC01CD010895F999FECF92BD81BDF89A11
:10F95000992780B50895262FF999FECF1FBA92BD39
:10F9600081BD20BD0FB6F894FA9AF99A0FBE0196A0
:06F970000895F894FFCF9A
:10F976000F020A454550524F4D20434C4541522EE9
:10F986002E2E0D0A00454550524F4D20434C454101
:10F996005245442C204A554D50204150500D0A00E6
:040000033000E000E9
:00000001FF
